{"abi":[{"type":"function","name":"assertFail","inputs":[],"outputs":[],"stateMutability":"pure"}],"bytecode":{"object":"0x6080604052348015600e575f80fd5b5060a280601a5f395ff3fe6080604052348015600e575f80fd5b50600436106026575f3560e01c806309ccaefb14602a575b5f80fd5b60306032565b005b5f603d57603c603f565b5b565b7f4e487b71000000000000000000000000000000000000000000000000000000005f52600160045260245ffdfea26469706673582212201e11a781d78a5b9affec5d77854b9d0828c995335e904b7c9fa443ac34fc93a764736f6c63430008190033","linkReferences":{}},"methodIdentifiers":{"assertFail()":"09ccaefb"},"id":34}