{"abi":[{"type":"function","name":"platform","inputs":[],"outputs":[{"name":"","type":"address","internalType":"contract IPlatform"}],"stateMutability":"view"},{"type":"function","name":"setPlatform","inputs":[{"name":"_platform","type":"address","internalType":"address"}],"outputs":[],"stateMutability":"nonpayable"}],"bytecode":{"object":"0x6080604052348015600e575f80fd5b5061020a8061001c5f395ff3fe608060405234801561000f575f80fd5b5060043610610034575f3560e01c80634bde38c8146100385780636945c5ea14610056575b5f80fd5b610040610072565b60405161004d9190610151565b60405180910390f35b610070600480360381019061006b91906101a9565b610095565b005b5f8054906101000a900473ffffffffffffffffffffffffffffffffffffffff1681565b805f806101000a81548173ffffffffffffffffffffffffffffffffffffffff021916908373ffffffffffffffffffffffffffffffffffffffff16021790555050565b5f73ffffffffffffffffffffffffffffffffffffffff82169050919050565b5f819050919050565b5f61011961011461010f846100d7565b6100f6565b6100d7565b9050919050565b5f61012a826100ff565b9050919050565b5f61013b82610120565b9050919050565b61014b81610131565b82525050565b5f6020820190506101645f830184610142565b92915050565b5f80fd5b5f610178826100d7565b9050919050565b6101888161016e565b8114610192575f80fd5b50565b5f813590506101a38161017f565b92915050565b5f602082840312156101be576101bd61016a565b5b5f6101cb84828501610195565b9150509291505056fea26469706673582212203522a0484bf7ec73a5f8b23c9c8eb7f2529b8586bf0c7683f7f57469e2c577a464736f6c63430008190033","linkReferences":{}},"methodIdentifiers":{"platform()":"4bde38c8","setPlatform(address)":"6945c5ea"},"id":27}